{
  "contractName": "Image",
  "abi": [
    {
      "inputs": [],
      "payable": false,
      "stateMutability": "nonpayable",
      "type": "constructor"
    },
    {
      "anonymous": false,
      "inputs": [
        {
          "indexed": false,
          "internalType": "uint256",
          "name": "fileId",
          "type": "uint256"
        },
        {
          "indexed": false,
          "internalType": "string",
          "name": "fileHash",
          "type": "string"
        },
        {
          "indexed": false,
          "internalType": "uint256",
          "name": "fileSize",
          "type": "uint256"
        },
        {
          "indexed": false,
          "internalType": "string",
          "name": "fileType",
          "type": "string"
        },
        {
          "indexed": false,
          "internalType": "string",
          "name": "fileName",
          "type": "string"
        },
        {
          "indexed": false,
          "internalType": "string",
          "name": "fileDescription",
          "type": "string"
        },
        {
          "indexed": false,
          "internalType": "uint256",
          "name": "uploadTime",
          "type": "uint256"
        },
        {
          "indexed": false,
          "internalType": "address payable",
          "name": "uploader",
          "type": "address"
        }
      ],
      "name": "FileUploaded",
      "type": "event"
    },
    {
      "constant": true,
      "inputs": [],
      "name": "name",
      "outputs": [
        {
          "internalType": "string",
          "name": "",
          "type": "string"
        }
      ],
      "payable": false,
      "stateMutability": "view",
      "type": "function"
    },
    {
      "constant": false,
      "inputs": [
        {
          "internalType": "string",
          "name": "_fileHash",
          "type": "string"
        },
        {
          "internalType": "uint256",
          "name": "_fileSize",
          "type": "uint256"
        },
        {
          "internalType": "string",
          "name": "_fileType",
          "type": "string"
        },
        {
          "internalType": "string",
          "name": "_fileName",
          "type": "string"
        },
        {
          "internalType": "string",
          "name": "_fileDescription",
          "type": "string"
        }
      ],
      "name": "uploadFile",
      "outputs": [],
      "payable": false,
      "stateMutability": "nonpayable",
      "type": "function"
    },
    {
      "constant": false,
      "inputs": [
        {
          "internalType": "string",
          "name": "_fileHash",
          "type": "string"
        },
        {
          "internalType": "uint256",
          "name": "_fileSize",
          "type": "uint256"
        },
        {
          "internalType": "string",
          "name": "_fileType",
          "type": "string"
        },
        {
          "internalType": "string",
          "name": "_fileName",
          "type": "string"
        },
        {
          "internalType": "string",
          "name": "_fileDescription",
          "type": "string"
        }
      ],
      "name": "uploadGlobally",
      "outputs": [],
      "payable": false,
      "stateMutability": "nonpayable",
      "type": "function"
    },
    {
      "constant": true,
      "inputs": [],
      "name": "filedata",
      "outputs": [
        {
          "components": [
            {
              "internalType": "uint256",
              "name": "fileId",
              "type": "uint256"
            },
            {
              "internalType": "string",
              "name": "fileHash",
              "type": "string"
            },
            {
              "internalType": "uint256",
              "name": "fileSize",
              "type": "uint256"
            },
            {
              "internalType": "string",
              "name": "fileType",
              "type": "string"
            },
            {
              "internalType": "string",
              "name": "fileName",
              "type": "string"
            },
            {
              "internalType": "string",
              "name": "fileDescription",
              "type": "string"
            },
            {
              "internalType": "uint256",
              "name": "uploadTime",
              "type": "uint256"
            },
            {
              "internalType": "address",
              "name": "uploader",
              "type": "address"
            }
          ],
          "internalType": "struct Image.File[]",
          "name": "",
          "type": "tuple[]"
        }
      ],
      "payable": false,
      "stateMutability": "view",
      "type": "function"
    },
    {
      "constant": true,
      "inputs": [],
      "name": "global_files",
      "outputs": [
        {
          "components": [
            {
              "internalType": "uint256",
              "name": "fileId",
              "type": "uint256"
            },
            {
              "internalType": "string",
              "name": "fileHash",
              "type": "string"
            },
            {
              "internalType": "uint256",
              "name": "fileSize",
              "type": "uint256"
            },
            {
              "internalType": "string",
              "name": "fileType",
              "type": "string"
            },
            {
              "internalType": "string",
              "name": "fileName",
              "type": "string"
            },
            {
              "internalType": "string",
              "name": "fileDescription",
              "type": "string"
            },
            {
              "internalType": "uint256",
              "name": "uploadTime",
              "type": "uint256"
            },
            {
              "internalType": "address",
              "name": "uploader",
              "type": "address"
            }
          ],
          "internalType": "struct Image.File[]",
          "name": "",
          "type": "tuple[]"
        }
      ],
      "payable": false,
      "stateMutability": "view",
      "type": "function"
    },
    {
      "constant": false,
      "inputs": [
        {
          "internalType": "address",
          "name": "user",
          "type": "address"
        },
        {
          "internalType": "string",
          "name": "request",
          "type": "string"
        }
      ],
      "name": "uploadRequest",
      "outputs": [],
      "payable": false,
      "stateMutability": "nonpayable",
      "type": "function"
    },
    {
      "constant": true,
      "inputs": [],
      "name": "viewRequest",
      "outputs": [
        {
          "components": [
            {
              "internalType": "address",
              "name": "to",
              "type": "address"
            },
            {
              "internalType": "address",
              "name": "from",
              "type": "address"
            },
            {
              "internalType": "string",
              "name": "request",
              "type": "string"
            }
          ],
          "internalType": "struct Image.req_struct[]",
          "name": "",
          "type": "tuple[]"
        }
      ],
      "payable": false,
      "stateMutability": "view",
      "type": "function"
    },
    {
      "constant": true,
      "inputs": [],
      "name": "my_request",
      "outputs": [
        {
          "components": [
            {
              "internalType": "address",
              "name": "to",
              "type": "address"
            },
            {
              "internalType": "address",
              "name": "from",
              "type": "address"
            },
            {
              "internalType": "string",
              "name": "request",
              "type": "string"
            }
          ],
          "internalType": "struct Image.req_struct[]",
          "name": "",
          "type": "tuple[]"
        }
      ],
      "payable": false,
      "stateMutability": "view",
      "type": "function"
    },
    {
      "constant": false,
      "inputs": [
        {
          "internalType": "address",
          "name": "user",
          "type": "address"
        },
        {
          "internalType": "string",
          "name": "request",
          "type": "string"
        }
      ],
      "name": "reqReject",
      "outputs": [],
      "payable": false,
      "stateMutability": "nonpayable",
      "type": "function"
    },
    {
      "constant": true,
      "inputs": [],
      "name": "view_access",
      "outputs": [
        {
          "components": [
            {
              "internalType": "uint256",
              "name": "fileId",
              "type": "uint256"
            },
            {
              "internalType": "string",
              "name": "fileHash",
              "type": "string"
            },
            {
              "internalType": "uint256",
              "name": "fileSize",
              "type": "uint256"
            },
            {
              "internalType": "string",
              "name": "fileType",
              "type": "string"
            },
            {
              "internalType": "string",
              "name": "fileName",
              "type": "string"
            },
            {
              "internalType": "string",
              "name": "fileDescription",
              "type": "string"
            },
            {
              "internalType": "uint256",
              "name": "uploadTime",
              "type": "uint256"
            },
            {
              "internalType": "address",
              "name": "uploader",
              "type": "address"
            }
          ],
          "internalType": "struct Image.File[]",
          "name": "",
          "type": "tuple[]"
        }
      ],
      "payable": false,
      "stateMutability": "view",
      "type": "function"
    },
    {
      "constant": false,
      "inputs": [
        {
          "internalType": "uint256",
          "name": "file_id",
          "type": "uint256"
        },
        {
          "internalType": "address",
          "name": "from",
          "type": "address"
        },
        {
          "internalType": "string",
          "name": "request",
          "type": "string"
        }
      ],
      "name": "acceptRequest",
      "outputs": [],
      "payable": false,
      "stateMutability": "nonpayable",
      "type": "function"
    },
    {
      "constant": false,
      "inputs": [
        {
          "internalType": "uint256",
          "name": "file_id",
          "type": "uint256"
        }
      ],
      "name": "deleteFile",
      "outputs": [],
      "payable": false,
      "stateMutability": "nonpayable",
      "type": "function"
    }
  ],
  "bytecode": "0x60806040526040518060400160405280600881526020017f4453746f72616765000000000000000000000000000000000000000000000000815250600090805190602001906200005192919062000075565b506000600155600060025560006003553480156200006e57600080fd5b5062000124565b828054600181600116156101000203166002900490600052602060002090601f016020900481019282601f10620000b857805160ff1916838001178555620000e9565b82800160010185558215620000e9579182015b82811115620000e8578251825591602001919060010190620000cb565b5b509050620000f89190620000fc565b5090565b6200012191905b808211156200011d57600081600090555060010162000103565b5090565b90565b613bec80620001346000396000f3fe608060405234801561001057600080fd5b50600436106100b35760003560e01c80636ac5ed29116100715780636ac5ed29146101685780637fb40c4a14610186578063c5b42006146101a4578063d0f10d0c146101c0578063d5c52976146101dc578063e82d9d33146101f8576100b3565b80629c5a49146100b857806306fdde03146100d65780631505481c146100f45780632718996b146101105780632bc884cc1461012e57806338b1e05f1461014a575b600080fd5b6100c0610214565b6040516100cd9190613879565b60405180910390f35b6100de610499565b6040516100eb919061389b565b60405180910390f35b61010e60048036036101099190810190613235565b610537565b005b610118610771565b6040516101259190613857565b60405180910390f35b61014860048036036101439190810190613335565b610b2b565b005b610152610cbe565b60405161015f9190613857565b60405180910390f35b610170611101565b60405161017d9190613879565b60405180910390f35b61018e611395565b60405161019b9190613857565b60405180910390f35b6101be60048036036101b9919081019061330c565b6117d8565b005b6101da60048036036101d591908101906131e1565b611f64565b005b6101f660048036036101f191908101906131e1565b6128d4565b005b610212600480360361020d9190810190613235565b612bbe565b005b60606000600760003373ffffffffffffffffffffffffffffffffffffffff1673ffffffffffffffffffffffffffffffffffffffff16815260200190815260200160002080549050905060608160405190808252806020026020018201604052801561029957816020015b610286612e4b565b81526020019060019003908161027e5790505b509050600080905060008390505b600081111561048f57600760003373ffffffffffffffffffffffffffffffffffffffff1673ffffffffffffffffffffffffffffffffffffffff16815260200190815260200160002060018203815481106102fd57fe5b90600052602060002090600302016040518060600160405290816000820160009054906101000a900473ffffffffffffffffffffffffffffffffffffffff1673ffffffffffffffffffffffffffffffffffffffff1673ffffffffffffffffffffffffffffffffffffffff1681526020016001820160009054906101000a900473ffffffffffffffffffffffffffffffffffffffff1673ffffffffffffffffffffffffffffffffffffffff1673ffffffffffffffffffffffffffffffffffffffff168152602001600282018054600181600116156101000203166002900480601f01602080910402602001604051908101604052809291908181526020018280546001816001161561010002031660029004801561045b5780601f106104305761010080835404028352916020019161045b565b820191906000526020600020905b81548152906001019060200180831161043e57829003601f168201915b50505050508152505083838151811061047057fe5b60200260200101819052506001820191508080600190039150506102a7565b5081935050505090565b60008054600181600116156101000203166002900480601f01602080910402602001604051908101604052809291908181526020018280546001816001161561010002031660029004801561052f5780601f106105045761010080835404028352916020019161052f565b820191906000526020600020905b81548152906001019060200180831161051257829003601f168201915b505050505081565b600085511161054557600080fd5b600083511161055357600080fd5b600081511161056157600080fd5b600082511161056f57600080fd5b600073ffffffffffffffffffffffffffffffffffffffff163373ffffffffffffffffffffffffffffffffffffffff1614156105a957600080fd5b600084116105b657600080fd5b600360008154809291906001019190505550600b60405180610100016040528060035481526020018781526020018681526020018581526020018481526020018381526020014281526020013373ffffffffffffffffffffffffffffffffffffffff168152509080600181540180825580915050906001820390600052602060002090600802016000909192909190915060008201518160000155602082015181600101908051906020019061066d929190612e98565b50604082015181600201556060820151816003019080519060200190610694929190612e98565b5060808201518160040190805190602001906106b1929190612e98565b5060a08201518160050190805190602001906106ce929190612e98565b5060c0820151816006015560e08201518160070160006101000a81548173ffffffffffffffffffffffffffffffffffffffff021916908373ffffffffffffffffffffffffffffffffffffffff1602179055505050507f6e95bbaa37a5fdec42a312e049dea2fe6160ebe659214d3409b4f91f164c2f526003548686868686423360405161076298979695949392919061391d565b60405180910390a15050505050565b60606000600b8054905090506060816040519080825280602002602001820160405280156107b957816020015b6107a6612f18565b81526020019060019003908161079e5790505b509050600080905060008390505b6000811115610b2157600b60018203815481106107e057fe5b90600052602060002090600802016040518061010001604052908160008201548152602001600182018054600181600116156101000203166002900480601f01602080910402602001604051908101604052809291908181526020018280546001816001161561010002031660029004801561089d5780601f106108725761010080835404028352916020019161089d565b820191906000526020600020905b81548152906001019060200180831161088057829003601f168201915b5050505050815260200160028201548152602001600382018054600181600116156101000203166002900480601f0160208091040260200160405190810160405280929190818152602001828054600181600116156101000203166002900480156109495780601f1061091e57610100808354040283529160200191610949565b820191906000526020600020905b81548152906001019060200180831161092c57829003601f168201915b50505050508152602001600482018054600181600116156101000203166002900480601f0160208091040260200160405190810160405280929190818152602001828054600181600116156101000203166002900480156109eb5780601f106109c0576101008083540402835291602001916109eb565b820191906000526020600020905b8154815290600101906020018083116109ce57829003601f168201915b50505050508152602001600582018054600181600116156101000203166002900480601f016020809104026020016040519081016040528092919081815260200182805460018160011615610100020316600290048015610a8d5780601f10610a6257610100808354040283529160200191610a8d565b820191906000526020600020905b815481529060010190602001808311610a7057829003601f168201915b50505050508152602001600682015481526020016007820160009054906101000a900473ffffffffffffffffffffffffffffffffffffffff1673ffffffffffffffffffffffffffffffffffffffff1673ffffffffffffffffffffffffffffffffffffffff1681525050838381518110610b0257fe5b60200260200101819052506001820191508080600190039150506107c7565b5081935050505090565b3373ffffffffffffffffffffffffffffffffffffffff166004600085815260200190815260200160002060070160009054906101000a900473ffffffffffffffffffffffffffffffffffffffff1673ffffffffffffffffffffffffffffffffffffffff1614610bcf576040517f08c379a0000000000000000000000000000000000000000000000000000000008152600401610bc6906138fd565b60405180910390fd5b600960008373ffffffffffffffffffffffffffffffffffffffff1673ffffffffffffffffffffffffffffffffffffffff168152602001908152602001600020839080600181540180825580915050906001820390600052602060002001600090919290919091505550600a60008481526020019081526020016000208290806001815401808255809150509060018203906000526020600020016000909192909190916101000a81548173ffffffffffffffffffffffffffffffffffffffff021916908373ffffffffffffffffffffffffffffffffffffffff16021790555050610cb98282611f64565b505050565b60606000600960003373ffffffffffffffffffffffffffffffffffffffff1673ffffffffffffffffffffffffffffffffffffffff168152602001908152602001600020805490509050606081604051908082528060200260200182016040528015610d4357816020015b610d30612f18565b815260200190600190039081610d285790505b509050600080905060008390505b60008111156110f75760046000600960003373ffffffffffffffffffffffffffffffffffffffff1673ffffffffffffffffffffffffffffffffffffffff1681526020019081526020016000206001840381548110610dab57fe5b906000526020600020015481526020019081526020016000206040518061010001604052908160008201548152602001600182018054600181600116156101000203166002900480601f016020809104026020016040519081016040528092919081815260200182805460018160011615610100020316600290048015610e735780601f10610e4857610100808354040283529160200191610e73565b820191906000526020600020905b815481529060010190602001808311610e5657829003601f168201915b5050505050815260200160028201548152602001600382018054600181600116156101000203166002900480601f016020809104026020016040519081016040528092919081815260200182805460018160011615610100020316600290048015610f1f5780601f10610ef457610100808354040283529160200191610f1f565b820191906000526020600020905b815481529060010190602001808311610f0257829003601f168201915b50505050508152602001600482018054600181600116156101000203166002900480601f016020809104026020016040519081016040528092919081815260200182805460018160011615610100020316600290048015610fc15780601f10610f9657610100808354040283529160200191610fc1565b820191906000526020600020905b815481529060010190602001808311610fa457829003601f168201915b50505050508152602001600582018054600181600116156101000203166002900480601f0160208091040260200160405190810160405280929190818152602001828054600181600116156101000203166002900480156110635780601f1061103857610100808354040283529160200191611063565b820191906000526020600020905b81548152906001019060200180831161104657829003601f168201915b50505050508152602001600682015481526020016007820160009054906101000a900473ffffffffffffffffffffffffffffffffffffffff1673ffffffffffffffffffffffffffffffffffffffff1673ffffffffffffffffffffffffffffffffffffffff16815250508383815181106110d857fe5b6020026020010181905250600182019150808060019003915050610d51565b5081935050505090565b60606000600860003373ffffffffffffffffffffffffffffffffffffffff1673ffffffffffffffffffffffffffffffffffffffff16815260200190815260200160002080549050905060608160405190808252806020026020018201604052801561118657816020015b611173612e4b565b81526020019060019003908161116b5790505b509050600080905060008390505b600081111561138b5760066000600860003373ffffffffffffffffffffffffffffffffffffffff1673ffffffffffffffffffffffffffffffffffffffff16815260200190815260200160002060018403815481106111ee57fe5b906000526020600020015481526020019081526020016000206040518060600160405290816000820160009054906101000a900473ffffffffffffffffffffffffffffffffffffffff1673ffffffffffffffffffffffffffffffffffffffff1673ffffffffffffffffffffffffffffffffffffffff1681526020016001820160009054906101000a900473ffffffffffffffffffffffffffffffffffffffff1673ffffffffffffffffffffffffffffffffffffffff1673ffffffffffffffffffffffffffffffffffffffff168152602001600282018054600181600116156101000203166002900480601f0160208091040260200160405190810160405280929190818152602001828054600181600116156101000203166002900480156113575780601f1061132c57610100808354040283529160200191611357565b820191906000526020600020905b81548152906001019060200180831161133a57829003601f168201915b50505050508152505083838151811061136c57fe5b6020026020010181905250600182019150808060019003915050611194565b5081935050505090565b60606000600560003373ffffffffffffffffffffffffffffffffffffffff1673ffffffffffffffffffffffffffffffffffffffff16815260200190815260200160002080549050905060608160405190808252806020026020018201604052801561141a57816020015b611407612f18565b8152602001906001900390816113ff5790505b509050600080905060008390505b60008111156117ce5760046000600560003373ffffffffffffffffffffffffffffffffffffffff1673ffffffffffffffffffffffffffffffffffffffff168152602001908152602001600020600184038154811061148257fe5b906000526020600020015481526020019081526020016000206040518061010001604052908160008201548152602001600182018054600181600116156101000203166002900480601f01602080910402602001604051908101604052809291908181526020018280546001816001161561010002031660029004801561154a5780601f1061151f5761010080835404028352916020019161154a565b820191906000526020600020905b81548152906001019060200180831161152d57829003601f168201915b5050505050815260200160028201548152602001600382018054600181600116156101000203166002900480601f0160208091040260200160405190810160405280929190818152602001828054600181600116156101000203166002900480156115f65780601f106115cb576101008083540402835291602001916115f6565b820191906000526020600020905b8154815290600101906020018083116115d957829003601f168201915b50505050508152602001600482018054600181600116156101000203166002900480601f0160208091040260200160405190810160405280929190818152602001828054600181600116156101000203166002900480156116985780601f1061166d57610100808354040283529160200191611698565b820191906000526020600020905b81548152906001019060200180831161167b57829003601f168201915b50505050508152602001600582018054600181600116156101000203166002900480601f01602080910402602001604051908101604052809291908181526020018280546001816001161561010002031660029004801561173a5780601f1061170f5761010080835404028352916020019161173a565b820191906000526020600020905b81548152906001019060200180831161171d57829003601f168201915b50505050508152602001600682015481526020016007820160009054906101000a900473ffffffffffffffffffffffffffffffffffffffff1673ffffffffffffffffffffffffffffffffffffffff1673ffffffffffffffffffffffffffffffffffffffff16815250508383815181106117af57fe5b6020026020010181905250600182019150808060019003915050611428565b5081935050505090565b3373ffffffffffffffffffffffffffffffffffffffff166004600083815260200190815260200160002060070160009054906101000a900473ffffffffffffffffffffffffffffffffffffffff1673ffffffffffffffffffffffffffffffffffffffff161461187c576040517f08c379a0000000000000000000000000000000000000000000000000000000008152600401611873906138dd565b60405180910390fd5b6000600a600083815260200190815260200160002080549050905060008090505b81811015611bd757600060096000600a600087815260200190815260200160002084815481106118c957fe5b9060005260206000200160009054906101000a900473ffffffffffffffffffffffffffffffffffffffff1673ffffffffffffffffffffffffffffffffffffffff1673ffffffffffffffffffffffffffffffffffffffff1681526020019081526020016000208054905090506000606490506000600a6000878152602001908152602001600020848154811061195a57fe5b9060005260206000200160009054906101000a900473ffffffffffffffffffffffffffffffffffffffff16905060008090505b83811015611a065786600960008473ffffffffffffffffffffffffffffffffffffffff1673ffffffffffffffffffffffffffffffffffffffff16815260200190815260200160002082815481106119e057fe5b906000526020600020015414156119f957809250611a06565b808060010191505061198d565b5060648210611a4a576040517f08c379a0000000000000000000000000000000000000000000000000000000008152600401611a41906138bd565b60405180910390fd5b60008290505b60018603811015611b1857600960008373ffffffffffffffffffffffffffffffffffffffff1673ffffffffffffffffffffffffffffffffffffffff1681526020019081526020016000206001820181548110611aa857fe5b9060005260206000200154600960008473ffffffffffffffffffffffffffffffffffffffff1673ffffffffffffffffffffffffffffffffffffffff1681526020019081526020016000208281548110611afd57fe5b90600052602060002001819055508080600101915050611a50565b50600960008273ffffffffffffffffffffffffffffffffffffffff1673ffffffffffffffffffffffffffffffffffffffff1681526020019081526020016000206001860381548110611b6657fe5b9060005260206000200160009055600960008273ffffffffffffffffffffffffffffffffffffffff1673ffffffffffffffffffffffffffffffffffffffff168152602001908152602001600020805480919060019003611bc69190612f73565b50505050808060010191505061189d565b50600a60008381526020019081526020016000206000611bf79190612f9f565b600560003373ffffffffffffffffffffffffffffffffffffffff1673ffffffffffffffffffffffffffffffffffffffff1681526020019081526020016000208054905090506000600560003373ffffffffffffffffffffffffffffffffffffffff1673ffffffffffffffffffffffffffffffffffffffff16815260200190815260200160002080549050905060006064905060008090505b82811015611d085784600560003373ffffffffffffffffffffffffffffffffffffffff1673ffffffffffffffffffffffffffffffffffffffff1681526020019081526020016000208281548110611ce257fe5b90600052602060002001541415611cfb57809150611d08565b8080600101915050611c8f565b5060648110611d4c576040517f08c379a0000000000000000000000000000000000000000000000000000000008152600401611d43906138bd565b60405180910390fd5b60008190505b60018403811015611e1a57600560003373ffffffffffffffffffffffffffffffffffffffff1673ffffffffffffffffffffffffffffffffffffffff1681526020019081526020016000206001820181548110611daa57fe5b9060005260206000200154600560003373ffffffffffffffffffffffffffffffffffffffff1673ffffffffffffffffffffffffffffffffffffffff1681526020019081526020016000208281548110611dff57fe5b90600052602060002001819055508080600101915050611d52565b50600560003373ffffffffffffffffffffffffffffffffffffffff1673ffffffffffffffffffffffffffffffffffffffff1681526020019081526020016000206001840381548110611e6857fe5b9060005260206000200160009055600560003373ffffffffffffffffffffffffffffffffffffffff1673ffffffffffffffffffffffffffffffffffffffff168152602001908152602001600020805480919060019003611ec89190612f73565b5060046000858152602001908152602001600020600080820160009055600182016000611ef59190612fc0565b6002820160009055600382016000611f0d9190612fc0565b600482016000611f1d9190612fc0565b600582016000611f2d9190612fc0565b60068201600090556007820160006101000a81549073ffffffffffffffffffffffffffffffffffffffff0219169055505050505050565b6000600860003373ffffffffffffffffffffffffffffffffffffffff1673ffffffffffffffffffffffffffffffffffffffff168152602001908152602001600020805490509050600060649050600080905060008090505b838110156121ae578573ffffffffffffffffffffffffffffffffffffffff1660066000600860003373ffffffffffffffffffffffffffffffffffffffff1673ffffffffffffffffffffffffffffffffffffffff168152602001908152602001600020848154811061202957fe5b9060005260206000200154815260200190815260200160002060010160009054906101000a900473ffffffffffffffffffffffffffffffffffffffff1673ffffffffffffffffffffffffffffffffffffffff1614801561213d575060066000600860003373ffffffffffffffffffffffffffffffffffffffff1673ffffffffffffffffffffffffffffffffffffffff16815260200190815260200160002083815481106120d257fe5b906000526020600020015481526020019081526020016000206002016040516020016120fe9190613840565b60405160208183030381529060405280519060200120856040516020016121259190613829565b60405160208183030381529060405280519060200120145b156121a157600860003373ffffffffffffffffffffffffffffffffffffffff1673ffffffffffffffffffffffffffffffffffffffff168152602001908152602001600020818154811061218c57fe5b906000526020600020015491508092506121ae565b8080600101915050611fbc565b50606482106121f2576040517f08c379a00000000000000000000000000000000000000000000000000000000081526004016121e9906138bd565b60405180910390fd5b60008290505b600184038110156122c057600860003373ffffffffffffffffffffffffffffffffffffffff1673ffffffffffffffffffffffffffffffffffffffff168152602001908152602001600020600182018154811061225057fe5b9060005260206000200154600860003373ffffffffffffffffffffffffffffffffffffffff1673ffffffffffffffffffffffffffffffffffffffff16815260200190815260200160002082815481106122a557fe5b906000526020600020018190555080806001019150506121f8565b50600860003373ffffffffffffffffffffffffffffffffffffffff1673ffffffffffffffffffffffffffffffffffffffff168152602001908152602001600020600184038154811061230e57fe5b9060005260206000200160009055600860003373ffffffffffffffffffffffffffffffffffffffff1673ffffffffffffffffffffffffffffffffffffffff16815260200190815260200160002080548091906001900361236e9190612f73565b5060066000828152602001908152602001600020600080820160006101000a81549073ffffffffffffffffffffffffffffffffffffffff02191690556001820160006101000a81549073ffffffffffffffffffffffffffffffffffffffff02191690556002820160006123e19190612fc0565b5050600760008673ffffffffffffffffffffffffffffffffffffffff1673ffffffffffffffffffffffffffffffffffffffff1681526020019081526020016000208054905092506064915060008090505b838110156125af573373ffffffffffffffffffffffffffffffffffffffff16600760008873ffffffffffffffffffffffffffffffffffffffff1673ffffffffffffffffffffffffffffffffffffffff168152602001908152602001600020828154811061249b57fe5b906000526020600020906003020160000160009054906101000a900473ffffffffffffffffffffffffffffffffffffffff1673ffffffffffffffffffffffffffffffffffffffff161480156125955750600760008773ffffffffffffffffffffffffffffffffffffffff1673ffffffffffffffffffffffffffffffffffffffff168152602001908152602001600020818154811061253557fe5b90600052602060002090600302016002016040516020016125569190613840565b604051602081830303815290604052805190602001208560405160200161257d9190613829565b60405160208183030381529060405280519060200120145b156125a2578092506125af565b8080600101915050612432565b50606482106125f3576040517f08c379a00000000000000000000000000000000000000000000000000000000081526004016125ea906138bd565b60405180910390fd5b60008290505b600184038110156127bd57600760008773ffffffffffffffffffffffffffffffffffffffff1673ffffffffffffffffffffffffffffffffffffffff168152602001908152602001600020600182018154811061265157fe5b9060005260206000209060030201600760008873ffffffffffffffffffffffffffffffffffffffff1673ffffffffffffffffffffffffffffffffffffffff16815260200190815260200160002082815481106126a957fe5b90600052602060002090600302016000820160009054906101000a900473ffffffffffffffffffffffffffffffffffffffff168160000160006101000a81548173ffffffffffffffffffffffffffffffffffffffff021916908373ffffffffffffffffffffffffffffffffffffffff1602179055506001820160009054906101000a900473ffffffffffffffffffffffffffffffffffffffff168160010160006101000a81548173ffffffffffffffffffffffffffffffffffffffff021916908373ffffffffffffffffffffffffffffffffffffffff160217905550600282018160020190805460018160011615610100020316600290046127ac929190613008565b5090505080806001019150506125f9565b50600760008673ffffffffffffffffffffffffffffffffffffffff1673ffffffffffffffffffffffffffffffffffffffff168152602001908152602001600020600184038154811061280b57fe5b9060005260206000209060030201600080820160006101000a81549073ffffffffffffffffffffffffffffffffffffffff02191690556001820160006101000a81549073ffffffffffffffffffffffffffffffffffffffff02191690556002820160006128789190612fc0565b5050600760008673ffffffffffffffffffffffffffffffffffffffff1673ffffffffffffffffffffffffffffffffffffffff1681526020019081526020016000208054809190600190036128cc919061308f565b505050505050565b60026000815480929190600101919050555060405180606001604052808373ffffffffffffffffffffffffffffffffffffffff1681526020013373ffffffffffffffffffffffffffffffffffffffff1681526020018281525060066000600254815260200190815260200160002060008201518160000160006101000a81548173ffffffffffffffffffffffffffffffffffffffff021916908373ffffffffffffffffffffffffffffffffffffffff16021790555060208201518160010160006101000a81548173ffffffffffffffffffffffffffffffffffffffff021916908373ffffffffffffffffffffffffffffffffffffffff16021790555060408201518160020190805190602001906129ec929190612e98565b50905050600860008373ffffffffffffffffffffffffffffffffffffffff1673ffffffffffffffffffffffffffffffffffffffff1681526020019081526020016000206002549080600181540180825580915050906001820390600052602060002001600090919290919091505550600760003373ffffffffffffffffffffffffffffffffffffffff1673ffffffffffffffffffffffffffffffffffffffff16815260200190815260200160002060405180606001604052808473ffffffffffffffffffffffffffffffffffffffff1681526020013373ffffffffffffffffffffffffffffffffffffffff168152602001838152509080600181540180825580915050906001820390600052602060002090600302016000909192909190915060008201518160000160006101000a81548173ffffffffffffffffffffffffffffffffffffffff021916908373ffffffffffffffffffffffffffffffffffffffff16021790555060208201518160010160006101000a81548173ffffffffffffffffffffffffffffffffffffffff021916908373ffffffffffffffffffffffffffffffffffffffff1602179055506040820151816002019080519060200190612bb6929190612e98565b505050505050565b6000855111612bcc57600080fd5b6000835111612bda57600080fd5b6000815111612be857600080fd5b6000825111612bf657600080fd5b600073ffffffffffffffffffffffffffffffffffffffff163373ffffffffffffffffffffffffffffffffffffffff161415612c3057600080fd5b60008411612c3d57600080fd5b60016000815480929190600101919050555060405180610100016040528060015481526020018681526020018581526020018481526020018381526020018281526020014281526020013373ffffffffffffffffffffffffffffffffffffffff16815250600460006001548152602001908152602001600020600082015181600001556020820151816001019080519060200190612cdc929190612e98565b50604082015181600201556060820151816003019080519060200190612d03929190612e98565b506080820151816004019080519060200190612d20929190612e98565b5060a0820151816005019080519060200190612d3d929190612e98565b5060c0820151816006015560e08201518160070160006101000a81548173ffffffffffffffffffffffffffffffffffffffff021916908373ffffffffffffffffffffffffffffffffffffffff160217905550905050600560003373ffffffffffffffffffffffffffffffffffffffff1673ffffffffffffffffffffffffffffffffffffffff16815260200190815260200160002060015490806001815401808255809150509060018203906000526020600020016000909192909190915055507f6e95bbaa37a5fdec42a312e049dea2fe6160ebe659214d3409b4f91f164c2f5260015486868686864233604051612e3c98979695949392919061391d565b60405180910390a15050505050565b6040518060600160405280600073ffffffffffffffffffffffffffffffffffffffff168152602001600073ffffffffffffffffffffffffffffffffffffffff168152602001606081525090565b828054600181600116156101000203166002900490600052602060002090601f016020900481019282601f10612ed957805160ff1916838001178555612f07565b82800160010185558215612f07579182015b82811115612f06578251825591602001919060010190612eeb565b5b509050612f1491906130c1565b5090565b60405180610100016040528060008152602001606081526020016000815260200160608152602001606081526020016060815260200160008152602001600073ffffffffffffffffffffffffffffffffffffffff1681525090565b815481835581811115612f9a57818360005260206000209182019101612f9991906130c1565b5b505050565b5080546000825590600052602060002090810190612fbd91906130c1565b50565b50805460018160011615610100020316600290046000825580601f10612fe65750613005565b601f01602090049060005260206000209081019061300491906130c1565b5b50565b828054600181600116156101000203166002900490600052602060002090601f016020900481019282601f10613041578054855561307e565b8280016001018555821561307e57600052602060002091601f016020900482015b8281111561307d578254825591600101919060010190613062565b5b50905061308b91906130c1565b5090565b8154818355818111156130bc576003028160030283600052602060002091820191016130bb91906130e6565b5b505050565b6130e391905b808211156130df5760008160009055506001016130c7565b5090565b90565b61316091905b8082111561315c57600080820160006101000a81549073ffffffffffffffffffffffffffffffffffffffff02191690556001820160006101000a81549073ffffffffffffffffffffffffffffffffffffffff02191690556002820160006131539190612fc0565b506003016130ec565b5090565b90565b60008135905061317281613b7b565b92915050565b600082601f83011261318957600080fd5b813561319c613197826139e4565b6139b7565b915080825260208301602083018583830111156131b857600080fd5b6131c3838284613b28565b50505092915050565b6000813590506131db81613b92565b92915050565b600080604083850312156131f457600080fd5b600061320285828601613163565b925050602083013567ffffffffffffffff81111561321f57600080fd5b61322b85828601613178565b9150509250929050565b600080600080600060a0868803121561324d57600080fd5b600086013567ffffffffffffffff81111561326757600080fd5b61327388828901613178565b9550506020613284888289016131cc565b945050604086013567ffffffffffffffff8111156132a157600080fd5b6132ad88828901613178565b935050606086013567ffffffffffffffff8111156132ca57600080fd5b6132d688828901613178565b925050608086013567ffffffffffffffff8111156132f357600080fd5b6132ff88828901613178565b9150509295509295909350565b60006020828403121561331e57600080fd5b600061332c848285016131cc565b91505092915050565b60008060006060848603121561334a57600080fd5b6000613358868287016131cc565b935050602061336986828701613163565b925050604084013567ffffffffffffffff81111561338657600080fd5b61339286828701613178565b9150509250925092565b60006133a883836136f6565b905092915050565b60006133bc83836137bb565b905092915050565b6133cd81613aec565b82525050565b6133dc81613ada565b82525050565b60006133ed82613a45565b6133f78185613a8b565b93508360208202850161340985613a10565b8060005b858110156134455784840389528151613426858261339c565b945061343183613a71565b925060208a0199505060018101905061340d565b50829750879550505050505092915050565b600061346282613a50565b61346c8185613a9c565b93508360208202850161347e85613a20565b8060005b858110156134ba578484038952815161349b85826133b0565b94506134a683613a7e565b925060208a01995050600181019050613482565b50829750879550505050505092915050565b60006134d782613a66565b6134e18185613abe565b93506134f1818560208601613b37565b6134fa81613b6a565b840191505092915050565b600061351082613a66565b61351a8185613acf565b935061352a818560208601613b37565b80840191505092915050565b600061354182613a5b565b61354b8185613aad565b935061355b818560208601613b37565b61356481613b6a565b840191505092915050565b600061357a82613a5b565b6135848185613abe565b9350613594818560208601613b37565b61359d81613b6a565b840191505092915050565b6000815460018116600081146135c557600181146135ea5761362e565b607f60028304166135d68187613acf565b955060ff198316865280860193505061362e565b600282046135f88187613acf565b955061360385613a30565b60005b8281101561362557815481890152600182019150602081019050613606565b82880195505050505b505092915050565b6000613643601083613abe565b91507f4e6f207265717565737420666f756e64000000000000000000000000000000006000830152602082019050919050565b6000613683601283613abe565b91507f596f7520617265206e6f74206f776e65722e00000000000000000000000000006000830152602082019050919050565b60006136c3601a83613abe565b91507f596f7520617265206e6f74206f776e6572206f662066696c652e0000000000006000830152602082019050919050565b60006101008301600083015161370f600086018261380b565b50602083015184820360208601526137278282613536565b915050604083015161373c604086018261380b565b50606083015184820360608601526137548282613536565b9150506080830151848203608086015261376e8282613536565b91505060a083015184820360a08601526137888282613536565b91505060c083015161379d60c086018261380b565b5060e08301516137b060e08601826133d3565b508091505092915050565b60006060830160008301516137d360008601826133d3565b5060208301516137e660208601826133d3565b50604083015184820360408601526137fe8282613536565b9150508091505092915050565b61381481613b1e565b82525050565b61382381613b1e565b82525050565b60006138358284613505565b915081905092915050565b600061384c82846135a8565b915081905092915050565b6000602082019050818103600083015261387181846133e2565b905092915050565b600060208201905081810360008301526138938184613457565b905092915050565b600060208201905081810360008301526138b5818461356f565b905092915050565b600060208201905081810360008301526138d681613636565b9050919050565b600060208201905081810360008301526138f681613676565b9050919050565b60006020820190508181036000830152613916816136b6565b9050919050565b600061010082019050613933600083018b61381a565b8181036020830152613945818a6134cc565b9050613954604083018961381a565b818103606083015261396681886134cc565b9050818103608083015261397a81876134cc565b905081810360a083015261398e81866134cc565b905061399d60c083018561381a565b6139aa60e08301846133c4565b9998505050505050505050565b6000604051905081810181811067ffffffffffffffff821117156139da57600080fd5b8060405250919050565b600067ffffffffffffffff8211156139fb57600080fd5b601f19601f8301169050602081019050919050565b6000819050602082019050919050565b6000819050602082019050919050565b60008190508160005260206000209050919050565b600081519050919050565b600081519050919050565b600081519050919050565b600081519050919050565b6000602082019050919050565b6000602082019050919050565b600082825260208201905092915050565b600082825260208201905092915050565b600082825260208201905092915050565b600082825260208201905092915050565b600081905092915050565b6000613ae582613afe565b9050919050565b6000613af782613afe565b9050919050565b600073ffffffffffffffffffffffffffffffffffffffff82169050919050565b6000819050919050565b82818337600083830152505050565b60005b83811015613b55578082015181840152602081019050613b3a565b83811115613b64576000848401525b50505050565b6000601f19601f8301169050919050565b613b8481613ada565b8114613b8f57600080fd5b50565b613b9b81613b1e565b8114613ba657600080fd5b5056fea365627a7a723158202e9808920c00fee3e54d51a6f3f601cd210a5a3f6e163eb86c3c0cca683e7ddb6c6578706572696d656e74616cf564736f6c63430005100040",
  "source": "pragma solidity ^0.5.16;\r\npragma experimental ABIEncoderV2;\r\n\r\ncontract Image {\r\n  string public name = 'DStorage';\r\n  uint private fileCount = 0;\r\n  uint private request_id= 0;\r\n  uint private global_count= 0;\r\n  mapping(uint => File) private filemap;\r\n  mapping(address=>uint[]) private ownership;\r\n  mapping(uint=>req_struct) private req_map;\r\n  mapping(address=>req_struct[]) private req_from_map;\r\n  mapping(address=>uint[]) private req_to_me;\r\n  mapping(address=>uint[]) private view_file_access;\r\n  mapping(uint=>address[]) private file_access_address;\r\n  File[] private global;\r\n\r\n  struct File {\r\n    uint fileId;\r\n    string fileHash;\r\n    uint fileSize;\r\n    string fileType;\r\n    string fileName;\r\n    string fileDescription;\r\n    uint uploadTime;\r\n    address uploader;\r\n  }\r\n  struct req_struct{\r\n    address to;\r\n    address from;\r\n    string request;\r\n  }\r\n\r\n  event FileUploaded(\r\n    uint fileId,\r\n    string fileHash,\r\n    uint fileSize,\r\n    string fileType,\r\n    string fileName, \r\n    string fileDescription,\r\n    uint uploadTime,\r\n    address payable uploader\r\n  );\r\n\r\n  constructor() public {\r\n  }\r\n\r\n  function uploadFile(string memory _fileHash, uint _fileSize, \r\n                      string memory _fileType, string memory _fileName, \r\n                      string memory _fileDescription) public {\r\n    require(bytes(_fileHash).length > 0);\r\n    require(bytes(_fileType).length > 0);\r\n    require(bytes(_fileDescription).length > 0);\r\n    require(bytes(_fileName).length > 0);\r\n    require(msg.sender!=address(0));\r\n    require(_fileSize>0);\r\n    fileCount++;\r\n    filemap[fileCount] = File(fileCount, _fileHash, _fileSize, _fileType, _fileName, _fileDescription, now, msg.sender);\r\n    ownership[msg.sender].push(fileCount);\r\n    emit FileUploaded(fileCount, _fileHash, _fileSize, _fileType, _fileName, _fileDescription, now, msg.sender);\r\n  }\r\n\r\n  function uploadGlobally(string memory _fileHash, uint _fileSize, \r\n                      string memory _fileType, string memory _fileName, \r\n                      string memory _fileDescription) public {\r\n    require(bytes(_fileHash).length > 0);\r\n    require(bytes(_fileType).length > 0);\r\n    require(bytes(_fileDescription).length > 0);\r\n    require(bytes(_fileName).length > 0);\r\n    require(msg.sender!=address(0));\r\n    require(_fileSize>0);\r\n    global_count++;\r\n    global.push(File(global_count, _fileHash, _fileSize, _fileType, _fileName, _fileDescription, now, msg.sender));\r\n    emit FileUploaded(global_count, _fileHash, _fileSize, _fileType, _fileName, _fileDescription, now, msg.sender);\r\n  }\r\n\r\n  function filedata() public view returns(File[] memory) {\r\n    uint256 counter = ownership[msg.sender].length;\r\n    File[] memory return_request = new File[](counter);\r\n    uint256 idx=0;\r\n    for(uint256 i=counter;i>0;i--){\r\n      return_request[idx]=filemap[ownership[msg.sender][i-1]];\r\n      idx+=1;\r\n    }\r\n    return return_request;\r\n  }\r\n\r\n  function global_files() public view returns(File[] memory) {\r\n    uint256 counter = global.length;\r\n    File[] memory return_request = new File[](counter);\r\n    uint256 idx=0;\r\n    for(uint256 i=counter;i>0;i--){\r\n      return_request[idx]=global[i-1];\r\n      idx+=1;\r\n    }\r\n    return return_request;\r\n  }\r\n\r\n  function uploadRequest(address user, string memory request) public{\r\n    request_id++;\r\n    req_map[request_id]=req_struct(user,msg.sender,request);\r\n    req_to_me[user].push(request_id);\r\n    req_from_map[msg.sender].push(req_struct(user,msg.sender,request));\r\n  }\r\n  function viewRequest() public view returns(req_struct[] memory){\r\n    uint256 counter = req_to_me[msg.sender].length;\r\n    req_struct[] memory return_request = new req_struct[](counter);\r\n    uint256 idx=0;\r\n    for(uint256 i=counter;i>0;i--){\r\n      return_request[idx]=req_map[req_to_me[msg.sender][i-1]];\r\n      idx+=1;\r\n    }\r\n    return return_request;\r\n  }\r\n  function my_request() public view returns(req_struct[] memory){\r\n    uint256 counter = req_from_map[msg.sender].length;\r\n    req_struct[] memory return_request = new req_struct[](counter);\r\n    uint256 idx=0;\r\n    for(uint256 i=counter;i>0;i--){\r\n      return_request[idx]=req_from_map[msg.sender][i-1];\r\n      idx+=1;\r\n    }\r\n    return return_request;\r\n  }\r\n\r\n  function reqReject(address user, string memory request) public{\r\n    uint256 counter = req_to_me[msg.sender].length;\r\n    uint256 idx=100;\r\n    uint256 req_to_delete=0;\r\n    for(uint256 i=0; i<counter; i++)\r\n    {\r\n      if(req_map[req_to_me[msg.sender][i]].from==user \r\n        && keccak256(abi.encodePacked((request))) == keccak256(abi.encodePacked((req_map[req_to_me[msg.sender][i]].request))))\r\n      {\r\n        req_to_delete=req_to_me[msg.sender][i];\r\n        idx=i;\r\n        break;\r\n      }\r\n    }\r\n    require(idx<100,\"No request found\");\r\n    for(uint256 i=idx; i<counter-1; i++)\r\n    {\r\n      req_to_me[msg.sender][i]=req_to_me[msg.sender][i+1];\r\n    }\r\n    delete req_to_me[msg.sender][counter-1];\r\n    req_to_me[msg.sender].length--;\r\n    delete req_map[req_to_delete];\r\n\r\n    counter = req_from_map[user].length;\r\n    idx=100;\r\n    for(uint256 i=0; i<counter; i++)\r\n    {\r\n      if(req_from_map[user][i].to==msg.sender \r\n        && keccak256(abi.encodePacked((request))) == keccak256(abi.encodePacked((req_from_map[user][i].request))))\r\n      {\r\n        idx=i;\r\n        break;\r\n      }\r\n    }\r\n    require(idx<100,\"No request found\");\r\n    for(uint256 i=idx; i<counter-1; i++)\r\n    {\r\n      req_from_map[user][i]=req_from_map[user][i+1];\r\n    }\r\n    delete req_from_map[user][counter-1];\r\n    req_from_map[user].length--;\r\n  }\r\n  function view_access() public view returns(File[] memory){\r\n    uint256 counter = view_file_access[msg.sender].length;\r\n    File[] memory return_request = new File[](counter);\r\n    uint256 idx=0;\r\n    for(uint256 i=counter;i>0;i--){\r\n      return_request[idx]=filemap[view_file_access[msg.sender][i-1]];\r\n      idx+=1;\r\n    }\r\n    return return_request;\r\n  }\r\n  function acceptRequest(uint file_id, address from, string memory request) public{\r\n    require(filemap[file_id].uploader==msg.sender,'You are not owner of file.');\r\n    view_file_access[from].push(file_id);\r\n    file_access_address[file_id].push(from);\r\n    reqReject(from,request); \r\n  }\r\n  function deleteFile(uint file_id) public{\r\n    require(filemap[file_id].uploader==msg.sender,\"You are not owner.\");\r\n    uint256 counter=file_access_address[file_id].length;\r\n    for(uint256 i=0; i<counter; i++)\r\n    {\r\n      uint256 no_of_file=view_file_access[file_access_address[file_id][i]].length;\r\n      uint256 idx=100;\r\n      address access_address=file_access_address[file_id][i];\r\n      for(uint256 j=0; j<no_of_file; j++)\r\n      {\r\n        if(view_file_access[access_address][j]==file_id)\r\n        {\r\n          idx=j;\r\n          break;\r\n        }\r\n      }\r\n      require(idx<100,\"No request found\");\r\n      for(uint256 j=idx; j<counter-1; j++)\r\n      {\r\n        view_file_access[access_address][j]=view_file_access[access_address][j+1];\r\n      }\r\n      delete view_file_access[access_address][counter-1];\r\n      view_file_access[access_address].length--;\r\n    }\r\n    delete file_access_address[file_id];\r\n    counter=ownership[msg.sender].length;\r\n    uint256 no_of_file=ownership[msg.sender].length;\r\n    uint256 idx=100;\r\n    for(uint256 i=0; i<no_of_file; i++)\r\n    {\r\n      if(ownership[msg.sender][i]==file_id)\r\n      {\r\n        idx=i;\r\n        break;\r\n      }\r\n    }\r\n    require(idx<100,\"No request found\");\r\n    for(uint256 i=idx; i<counter-1; i++)\r\n    {\r\n      ownership[msg.sender][i]=ownership[msg.sender][i+1];\r\n    }\r\n    delete ownership[msg.sender][counter-1];\r\n    ownership[msg.sender].length--;\r\n    delete filemap[file_id];\r\n  }\r\n}",
  "sourcePath": "C:\\Users\\Aman\\Documents\\IPFS-EthereumDapp\\src\\contracts\\Image.sol",
  "compiler": {
    "name": "solc",
    "version": "0.5.16+commit.9c3226ce.Emscripten.clang"
  },
  "schemaVersion": "3.4.3",
  "updatedAt": "2021-12-03T05:00:22.286Z",
  "networkType": "ethereum",
  "devdoc": {
    "methods": {}
  },
  "userdoc": {
    "methods": {}
  }
}